:100000000C9446000C945D000C945D000C945D0013
:100010000C945D000C945D000C9494000C9485008D
:100020000C9476000C945D000C945D000C945D00C3
:100030000C94A3000C945D000C945D000C945D0086
:100040000C945D000C945D000C945D000C945D00BC
:100050000C945D000C945D000C945D000C945D00AC
:100060000C945D000C945D000C945D000C945D009C
:100070000C945D000C945D000C945D000C945D008C
:100080000C945D000C945D000C945D0011241FBE67
:10009000CFEFD0E1DEBFCDBF11E0A0E0B1E0E4E9F9
:1000A000F1E000E00BBF02C007900D92A030B10755
:1000B000D9F70E945F000C94C8000C94000089B727
:1000C000806E89BF8AB784658ABF8EB588608EBD11
:1000D00087B7806187BF1DBC1CBC789481B3806FDB
:1000E00081BB949A959A969A979AFFCF1F920F92F6
:1000F0000FB60F9211240F9B02C0979A01C09798D8
:100100000F900FBE0F901F9018951F920F920FB671
:100110000F9211240E9B02C0969A01C096980F90E0
:100120000FBE0F901F9018951F920F920FB60F924F
:1001300011240D9B02C0959A01C095980F900FBE97
:100140000F901F9018951F920F920FB60F920BB63B
:100150000F9211248F939F93EF93FF93E2B3F0E0FC
:100160009081991F9927991F81E098279795992742
:10017000979580818F77892B8083FF91EF919F9155
:100180008F910F900BBE0F900FBE0F901F90189580
:04019000F894FFCF11
:00000001FF
